:10000000008000202D0400001504000017040000EB
:1000100000000000000000000000000000000000E0
:1000200000000000000000000000000015040000B7
:10003000000000000000000015040000150400008E
:10004000150400001504000015040000150400004C
:10005000150400001504000015040000150400003C
:10006000150400001504000015040000150400002C
:10007000150400001504000015040000150400001C
:10008000150400001504000015040000150400000C
:1000900015040000150400001504000015040000FC
:1000A00015040000150400001504000015040000EC
:1000B00015040000150400001504000015040000DC
:1000C0000448054B10B5834203D0044B002B00D0ED
:1000D000984710BD2C0500202C05002000000000D2
:1000E00006480749091A8B10C90FC91810B54910DD
:1000F00003D0044B002B00D0984710BD2C050020E6
:100100002C0500200000000010B5074C2378002BC0
:1001100009D1FFF7D5FF054B002B02D0044800E0C2
:1001200000BF0123237010BD500500200000000017
:100130003C540000054B10B5002B03D00449054882
:1001400000E000BFFFF7CCFF10BDC046000000007C
:10015000540500203C540000402292029A1A924614
:100160007047C046174B002B00D1134B9D46FFF73D
:10017000F3FF00218B460F461348144A121A04F06D
:100180009BF90E4B002B00D098470D4B002B00D055
:1001900098470020002104000D000D48002802D0DF
:1001A0000C4800E000BF04F08FF92000290000F0A7
:1001B00045FA04F06DF9C046000008000000000098
:1001C000210400000080002050050020400E002087
:1001D000000000000000000010B500F0C9F800F0B9
:1001E00015F800F0B3F800F049F800F071F810BD10
:1001F00010B500F041F800F069F800F0A5F810BD66
:1002000010B5FFF7E9FFFFF7F3FF10BD10B50021B0
:10021000012003F01DFF00220120110003F07CFEED
:100220000021012003F0F6FE0121080003F010FF79
:1002300001210022080003F06FFE0121080003F0F5
:10024000E9FE0221012003F003FF05220221012023
:1002500003F062FE0221012003F0DCFE03210120F5
:1002600003F0F6FE1D220321012003F055FE0321B9
:10027000012003F0CFFE10BD7047000010B5002232
:100280000121052003F0A8FE00220121132003F024
:10029000A3FE8023C0210C4A5B02890053504031E9
:1002A00050580343535012200322012103F094FEBF
:1002B00002220121032003F08FFE012206201100FB
:1002C00003F08AFE10BDC04600003A4070470000AF
:1002D00010B5134C0621134A134803F015F80021FA
:1002E0002000124A03F010F804212000104A03F005
:1002F0000BF8052120000F4A03F006F820000E4CF1
:1003000007210E4A03F000F8022120000C4A02F0F7
:10031000FBFF032120000B4A02F0F6FF10BDC04690
:1003200000020440D04E000000000440E84E0000EF
:10033000004F0000184F000000030440304F000041
:10034000484F0000604F000070470000C022C021ED
:10035000054B920289005A5040315A508022196848
:1003600012060A431A60704700003A4070470000C6
:1003700010B5302003F01AFF8023214C1B062363A5
:10038000204803F013FC002003F042FD0C22A36A76
:100390009343A362A36AB4329343A36200F094F838
:1003A000002003F071FE184A53699B009B085361BB
:1003B000A26B164B9A4203D1E36A5B005B08E362CF
:1003C000134803F0F3FB002003F07AFB002003F056
:1003D0001FFD011E02D00620FFF7C8FF0C22A36AF2
:1003E00001209343A362A36AB4329343A36203F050
:1003F0004BFE302003F0DAFE00F066F810BDC04678
:100400000000034000366E0100002F406588EDAC0F
:10041000006CDC02FEE710B503F0C6FE10BD7047AD
:1004200010B5FFF7FCFF10BD7047000070B5FFF777
:10043000FBFF00F03DF8164CC0222000154904F0E7
:100440006FF8154B9C60BFF34F8F144B14488342D9
:1004500011D30020134B14498B4217D3FFF782FEB0
:100460001C68910065585C680132655099688A4241
:10047000F6D30C33EBE70022F8E71C68950028510F
:1004800001325C68A242F8D30833E5E70022F8E7BE
:10049000000000200000000000ED00E048540000D3
:1004A00054540000545400005C5400007047000095
:1004B000034B044A10B59A6372B6FFF7F7FF10BDFD
:1004C000000003406588EDAC114B70B59C6A03F0E9
:1004D000F9FC01232406A40FA3405B081818E04090
:1004E00014D00C4B441E18600B49200003F044FF4D
:1004F000FA210A4D013028708900200003F03CFFEA
:10050000074B01301860074BC003186070BDC04630
:1005100000000340E004002040420F00EC040020F3
:10052000E8040020E404002010B5074C002120005E
:1005300003F071F9054B80B21880842301229B00DF
:10054000E250E35810BDC04600003A40300B002096
:1005500010B50249024801F07CF810BDC00000202F
:1005600000002A4010B50249024801F072F810BD9F
:10057000C000002000002940012270B5164B5A63CC
:100580005B6B164B1A78D3B2012A23D14625144A45
:100590001449D06842382A005A4382581288D4B28B
:1005A000CC54120A5C1C02330A55192BF3D11A22BF
:1005B0000D4803F07DF90D4A13780133DBB2137057
:1005C000022B04D9002313700122094B9A640122E3
:1005D000084B1A7070BDC046FC002040100B002074
:1005E000C00000200905002000002740110B00205A
:1005F00000020440FC04002070B50D4E0D4D330088
:100600000C222900402002F0CDFA00242B5D0D2B96
:100610000CD001340C2CF9D10749280003F078FFE5
:10062000330022002900402002F0F4FB70BDC046D8
:10063000F00A0020FD040020784F0000F0B591B0D2
:10064000FFF736FFFFF7DCFD62B60124BE4B20004A
:10065000BE495C6403F0F0FD03F0D6FDBC49BD4A21
:10066000BD4803F03FF9011E00D0FEE7BB4ABC487D
:1006700003F000FE051EF8D1112304AA13820AAE6E
:100680000E3BB84908A8099303F02CFD2900182255
:10069000300003F011FF0E23290032007360AA48D6
:1006A00002F032FEB049B14802F050FFB04D2800D0
:1006B00000F0A0FA0028D8D12A002100043000F070
:1006C000E7FF0028D1D1AB4FAB48390002F050FA18
:1006D000041ECAD1A94D3B001822290002F062FA7B
:1006E000FFF78AFF2978002914D0A54FA5483A00C2
:1006F0009F4B0197A7003858009302F032F8A248A8
:10070000297B009B019A3858013402F02AF8013500
:100710000C2CE7D11023032706A89C4903804760CF
:1007200003F0E0FC80239A4D5B022B601D2304AA9A
:100730001382984908A8099703F0D4FC80239B05ED
:100740002B6019233380153B30009349736003F00D
:10075000C9FC80239B022B60844C0126200003F0FF
:1007600031F884239B002662E650E35886239B00E1
:10077000E65080239B042B608023774A1B06116878
:100780007B480B431360854B5F7600F0CBF9844BBD
:1007900031001860724B20001A6832431A608022C0
:1007A00052049A6003F01BF816E00123664A536472
:1007B000009B013310D06B4618786E3809280BD88F
:1007C00003F0D0FD9E0A0A830A050A0A0A8800225D
:1007D000744B1A7001233B70D0225F4B92009B58E0
:1007E00000936B461B780193742B3AD1002205AB22
:1007F000D020594980000958481CF9D0D154013201
:10080000042AF5D19F781C78DB780293664B1A781E
:10081000D2B2039202221A70554D280000F014FF44
:100820000028F9D15549029A0B190F551A7318224D
:10083000504B02F0EFFA524E5248A4002B00320007
:100840003900205801F08DFF4F482B0032000299EB
:10085000205801F086FF280000F064F9524B039AFB
:100860001A70514F3B78DAB2002B9ED0012AB3D1D7
:10087000D2214C4D3E4C2A78C900D3B20093E36894
:100880005B1899682300002A4FD10232062001F03C
:1008900056F922000421424E3060009801F0EEFB30
:1008A0003060200000F0D0FE0028FAD12B785A42A8
:1008B0005341DBB22B70019B692B8DD13B4B224AFC
:1008C000187001233870536486E71A21224802F019
:1008D000A7FF81E700223649D0201F4B80001B581C
:1008E000581CF9D0DBB253540D2B02D001320C2A24
:1008F000F2D100230C22CB7240201E4B02F08AFA68
:10090000FFF77AFE2A4C25000C352178124802F0B8
:1009100087FF21780D2904D10F4802F081FF0A21B9
:10092000D4E70134AC42F0D156E70022062001F0B2
:1009300006F91B4E3060200000F086FE0028FAD138
:10094000220002210430A9E7000204407FBB00001E
:10095000404E0000340B002000002740844E000071
:100960000000204079050000C44D000000003A401E
:10097000C0000020F00A0020F0040020130B00202B
:1009800068010020305200000052000065050000A0
:1009900000E100E0510500002905000009050020E4
:1009A0002C0B0020120B0020100B0020110B00203C
:1009B000FD040020000000000230800803D0013058
:1009C0000238FCD1C046C0467047EFF3108072B6C3
:1009D000704780F3108870470120704780204000E6
:1009E0007047002070470020814205D0C02389183D
:1009F000DB028B424041C0B27047002070470000CC
:100A0000F0B5150080220E000C4C0021A54468466C
:100A1000D200EFB203F050FD3400002F07D0084F92
:100A200008E02000694602F0CDFB0134FF34731961
:100A3000A342F6D83800034B9D44F0BDFCFBFFFFFA
:100A4000020016060404000010B5180003F068FD4B
:100A5000002010BDF7B5D7B20D0016000C000193B1
:100A6000002F06D0074F0AE0200002F0ABFB013454
:100A7000FF34019B591BAB1909199C42F4D3380070
:100A8000FEBDC046020016068020400070470000F0
:100A9000031E16D00C4A42610C4A82610C4AC261A4
:100AA00000200C4A18625A600B4A58629A600B4A3E
:100AB0001860DA600A4A1A610A4A9A620A4ADA62D5
:100AC00070470A48FCE7C046490A0000550A000082
:100AD000010A0000D9090000DD090000890A0000B0
:100AE000E3090000E7090000FB0900000300160607
:100AF00070B5040001F016FE051E10D1200000F0B4
:100B00006EFD200001F0BAFB636805005B7A002BE4
:100B100005D1200001F078FE012263685A72280096
:100B200070BD0000F8B5802342681B02D168050043
:100B30000B43D360FFF7DCFF041E1BD1280000F03D
:100B40007FFD2B6815490700186803F015FC052286
:100B50000100124800F032FE0600280000F074FD8B
:100B6000002814D120002900013400F061FD0D2C73
:100B7000F8D13C00280000F010F9280000F0D4F86B
:100B80006A680749D36820430B40D360F8BD002E44
:100B900001D0013EE1E70427E4E7C04640420F00F0
:100BA000FF7FFFFF036810B59B6804005A68802030
:100BB0001278002A1CD15B6A1B78002B18D1210007
:100BC0007F3801F083F9002812D1236802219C6844
:100BD0006268206802F0FAFB03000820002B07D1AE
:100BE0000221626A206A02F0F1FB431E9841C000B4
:100BF00010BD0000F8B504000120002C6AD00722C7
:100C0000636806269A80A3680022190051310A7091
:100C10004A701A605A60DA609A60E2682E49106879
:100C20000200451823321178314311703832AA423C
:100C3000F9D11D00002221683A35DA612A700A00D4
:100C40003F3215781A00453215700A003D3215788A
:100C50001A00463215700A00413215781A004732E0
:100C60001570CA8D08261A850A8E10275A850A0023
:100C7000443215781A00413215700A004532157851
:100C80001A0042321570B725144AAD009A86144AEC
:100C9000DA63021D40191588002D02D1D57F354336
:100CA000D5775588002D02D1D57F3D43D577383291
:100CB0008242F0D18A8D00201A877822DA863B336F
:100CC000753A21001A7001F001F9002802D12000C4
:100CD000FFF768FFF8BDC046FB0200004C080000AB
:100CE00000FF8E01D3688C2242439A180A23002009
:100CF0004B435168C9180B8808724B80C871704704
:100D00008C2270B5424304000D000020CB689B1874
:100D10001B8F5E1E002B00D170BD2A003100200009
:100D2000FFF7E0FF3300F4E770B505000D24002065
:100D3000013C00D270BD29002000FFF7E1FFF7E77A
:100D40008C234343F7B5C8680024C01803007833E8
:100D50001D880F232B405B0001930A2310262100DE
:100D60009C462E40038F8B4200D8F7BD63464B4311
:100D70004268D218C3691B19002E03D017881F8040
:100D80005F8004336F0504D517885F809F801288C9
:100D9000DA80019B0131E418E4E770B505000D2409
:100DA000013C00D270BD29002000FFF7C9FFF7E722
:100DB000302210B504684331944304600978836895
:100DC000012909D1094A1340094A13438360026982
:100DD000084B1343036110BD074922430B40982180
:100DE00009050B4383600260F5E7C046FFFF03B0CF
:100DF0000000284400000580FFFF03F0F0B5C62482
:100E00000E00EDB0640022008F680490DC4909A850
:100E100003F086FB049BDB495B0105933368059A6D
:100E20009B689B180293049B6343746A0693E418BF
:100E30003B003F331A78012393429B41D24A1B0E59
:100E40001B069B181422E260D04A23602261D04A1C
:100E50000023E261802252022262CE4A6360226352
:100E60006622FF32A263CC4AA360E263CB4A63618D
:100E70002264CB4AA3616362A362E3626363636437
:100E8000A164E26421656265029A127B013A012A3B
:100E900000D833E1A364E3642000C24AA36522675B
:100EA000221D6367A367A3630021D36784301822E0
:100EB00003F002FB2000802200219C3003F0FCFAAA
:100EC00020003D3050220021FF3003F0F5FA3B00B6
:100ED000493306221800FF21019303F0EDFA33682D
:100EE00034331B785A4253411B01039300239C4621
:100EF000009335682B0034331B78634520D9614655
:100F00008C224A43F36838219B1884331A7863464D
:100F100059433069431831331978531C012900D0E3
:100F2000531E0199019AC95CD218FF2900D013E120
:100F30000099032900D8E4E02023039A1A4303927E
:100F40003B002000009A48331D301A7050A920221F
:100F5000FF3003F0E5FA2B0043331B78022B03D15B
:100F60002300914AFC339A638023A26F5B001343F2
:100F7000A3673B0049331B78FF2B07D0142058434D
:100F80003D30FF3029002018FFF712FF3B004B33A4
:100F90001B78FF2B07D0142058433D30FF30290029
:100FA0002018FFF705FF3B0042331A78E36A12026C
:100FB0001343E362AB8C049A07932B004E331B78E8
:100FC00071699B18002201930092079B9A4200D2FC
:100FD000C5E029003C310B780021B2690493049BE1
:100FE000994200D2F2E0726A069B0198D218009BE7
:100FF0005363B3681A0019003E3212783D31097804
:1010000012040A432263694922680A4029002260C7
:101010004C310978814207D128004A3000780128F4
:1010200002D1FF30024322602268614802400198E9
:101030002260814208D129004F310978012903D16A
:10104000802149010A4322602A004B321278002A8B
:1010500006D0A968059812010858882189004250D5
:101060001A003C321278998E12040A436262514986
:10107000A2680A402900473109780A43290048310B
:10108000097809020A43A260E268398F920A920243
:10109000002900D1AAE0463547480A432978024092
:1010A00009040A43E260454821696269A569014073
:1010B0000240AC46029D216162612D7B788D013D2D
:1010C0003E8D0004012D00D992E00143314321619E
:1010D000FF21A26903988A4311003A004132127835
:1010E0000A43A2613649E2690A40D98E3B331B7834
:1010F00009040A431343E3616DB0F0BD23656365E2
:10110000CAE60099117014224A4314214B43A218D5
:101110007D310792FF315B18079908AA9B183D3172
:10112000FF31503B25CB25C124CB24C1029B1B7B27
:10113000013B012B0DD9079A2249FC32D36C19408F
:10114000214B0B43D3640123116D99430F330B43A0
:101150001365009B0133009301239C44C9E68B79FE
:101160009C46019B9C4507D14B799C4601236046D8
:1011700083400098184300900831013225E7C046AB
:10118000605200000100008011001081C800C800FA
:1011900003000F00FF008E00230032003200230006
:1011A000000100801010000000000809FFFEFFFF92
:1011B000FFEFFFFFF8FEFFFFFFFFFEFF00F000F074
:1011C00000FF00FCFEBFFFFF0400010093799C4676
:1011D000019B9C4507D153799C460123604683407F
:1011E00000981843009008320131F8E6012152E7D7
:1011F00002433243626180226146D2000A43A26107
:1012000066E7C04670B5156854682B0083431360C9
:1012100023008343536093681E00864396604E0705
:1012200001D5054315608D0701D504435460C907F6
:1012300001D50343936070BDD36AF7B580001C5A93
:101240001D188C236343D0686E88C01843681769E3
:10125000019338236343FF18BB8E1C00651EAC410D
:101260001A4D1B1BCC681B042C4023430468CB6025
:10127000230031331B78012B1DD1C02332373F7837
:101280001B043F063B435268D268D2041BD40200C1
:1012900084321278012A11D13A300078B0420DD848
:1012A0002F34227813430A227243019885186A7AF0
:1012B0001202134307E08023DB03E4E72E34207897
:1012C0000343012AEFD000200B61FEBDFFFF00F0B9
:1012D000032301381940434258410130022901D10A
:1012E000024192B2100070470023F0B51400D26A98
:1012F000CB600B6183000E00D118D25A38235343C0
:10130000256985B0ED188C235343E2680290D31809
:10131000019384331878EA89012806D1019B3A3376
:101320001F784B889F4200D82A8AAB1CDF7F390088
:10133000FFF7CEFF2B00032236331B7817403F0701
:1013400001389B073B4307041F43220031000298EA
:101350007761FFF771FF2A00019B039031328433DC
:101360001B7811785A1C012900D05A1EA3689B18BB
:10137000226849334B321B7812789B0112011343C8
:101380001F43019B134A86331C78F368013C1340CA
:1013900024071C43AB8D240C013B24041C43640034
:1013A0006408F46033352B78012B0CD107210298A7
:1013B00003F068F8019B80331B88994203D0802397
:1013C0001B062343F360032303983B43736105B07B
:1013D000F0BDC046FFFFFF8F70B50400080011008C
:1013E0001A00DB6A8500ED5A054B9D4202D9002C9C
:1013F00003D10730FFF778FF70BD0738FAE7C04622
:10140000FCFF0000F0B593B01400069018220B9179
:101410000CA8002103F050F8C622069952004A4356
:10142000636A01219B185B6B0893A3681A00523210
:1014300012780191022A05D000210191052A01D1DB
:1014400002320192012251331B780392022B05D004
:1014500000210391042B01D102330393069B002743
:10146000013313401C225A430592182307257B435E
:101470000B9AD31809932368069A07934E331B7867
:101480009B185D430293ED19230029000CAA0298D2
:10149000FFF7A2FFE36AAA009E5A99183C4A9642B7
:1014A0001CD1059A995A8C224A43E36803999B18E8
:1014B00084331B78012B00D0019908980CAAFFF700
:1014C000A1FE182209980CA903F02AF8059B013700
:1014D00004330593072FC8D113B0F0BD4A882D49B6
:1014E0008E4202D907214A43D519AD005B195A88AB
:1014F000E5680A921A888C235343ED182B00843335
:101500001B7801990493012B00D1039908980CAA28
:10151000FFF778FE1F4B9E4213D8049B012B10D17E
:101520000A9B0299DA00AB689B189A79914208D11C
:10153000002002005D79954220D805210CAAFFF712
:1015400061FE079B3C331A78002ABAD0049B06211F
:10155000012B00D00199A369D200D2189446002033
:1015600001259E79029AB24203D12A005E79B240E7
:10157000104308339C45F4D10CAAA0E71968D600A3
:1015800089194979049E01328E403043D3E7C04621
:10159000FFFF0000FCFF00008C2370B501264343D1
:1015A000C868C0180368028F1D1DEC7F4168B443F2
:1015B000EC7714000236013C0CD201008531097829
:1015C000012901D0042904D10133D97F806A02F0B6
:1015D00073FF70BD8D79B5438D710A31EBE770B53E
:1015E00005000D24013C00D270BD29002000FFF74A
:1015F000D3FFF7E78C234343C868F0B5C018060053
:10160000002304684268A188058F84363A309D42E1
:1016100000D8F0BD3778012F03D107789F4200D85A
:10162000E18817888F4200D911800A320133EEE732
:1016300010B5FFF7DFFF10BD10B500F01FFD10BDA6
:1016400010B500F0B1F810BD4368D8688023184089
:10165000704710B5002000F0BCF810BD8268002370
:101660001100503110B50B70130051331C780E234C
:10167000012C0BD0053B042C08D1043B0B700368F4
:10168000433319780E23012900D1053B536110BD66
:10169000F8B505000E0014000127002A31D0002003
:1016A000D3691100587500F011FCBE420FD16B1EBA
:1016B000BB4201D9042D0AD1A368EDB251331A7887
:1016C0000027AA4203D020001D70FFF7C7FF0025A6
:1016D00018226A43E3699B1800225A7597420ED17B
:1016E000731E012B0BD82368A8324E331B78A16AD6
:1016F0005B19534328002200C918FFF783FE012D10
:1017000001D13800F8BD0125E2E700008C2213B5B5
:1017100042430020CC680190A41822680B000432D8
:10172000D27F120710D5220080321188020001A852
:1017300000F068FF8023019A5B029A4201D3034BB9
:1017400001932368019A9A8016BDC046FFFF0000EE
:1017500030B50F24250089008D4022408A40054B7A
:10176000C018030A04481B181B021868A84310433A
:10177000186030BD0000FCBF00024000072370B5B8
:1017800003251E004D431340AE40AB408468D20891
:10179000B4432343836001231A408B408A40846909
:1017A0009C432243826170BD020010B50120002AD3
:1017B00003D007210020FFF73FFF10BD0B0010B53D
:1017C000111E03D0584302F0D7FD10BD0120404246
:1017D000FBE710B58B6808001B69984710BD1823FC
:1017E0004343D06910B5C0188C23047DD26863438D
:1017F000D2180A234B435168C918C16010BD0000BC
:101800000B0018214143D0694018064903758B42EB
:1018100006D8D1688C225343C91884310B7843759C
:101820007047C046FCFF0000F8B517001A001D0005
:1018300004000E00FFF7E4FF044B9E4204D82A0088
:1018400039002000FFF7CBFFF8BDC046FCFF0000C9
:10185000F7B504000D0017001E00FFF7B6F8019061
:10186000002E0DD1320029002000FFF771FF3A0051
:1018700029002000FFF782FF0198FFF7AAF8F7BDC3
:101880003A0029002000FFF779FF320029002000EC
:10189000FFF75EFFF0E770B50D000B684401986834
:1018A00009220019017B00238068FFF7D1FF2B6814
:1018B0000922986800230019017D0069FFF7C8FF1D
:1018C00070BDF8B505000026012744692B689B8C84
:1018D000B34200D8F8BD2179002309222068FFF720
:1018E000B7FF3900227923689140083459640136E2
:1018F000ECE7F8B505000026012784692B683C3326
:101900001B78B34200D8F8BD217900230922206852
:10191000FFF79EFF3900227923689140083459640B
:101920000136EBE7012383404968CA6813438022EC
:101930001343CB60704770B50B688C685A8EE38D8B
:101940004243D2181823042553438A6A1433D31808
:101950001A68AA43033D85401A604B68DA68AA43B7
:10196000DA60DA68120703D18020DA688243DA602D
:10197000DA68002A07D1DA880132DA806368002B3E
:1019800001D0C869984770BD0268F0B51300040023
:10199000802092684E3311684000FC31496F1B78FB
:1019A00085B0014207D1116A0126FC31496F01421D
:1019B00002D105B0F0BD0026A16807250091710194
:1019C0008A589B1917000292474A5D43FC37009BD7
:1019D0007A679B8D7A6FED18182373430393039AEC
:1019E000E3699B180193E36AAA00D05A3F4B9842DF
:1019F00033D8210000F0DCFE00282ED00422019B09
:101A00007869DB6899799143C70323D49971188069
:101A10008823029A9B00D1583300A26808339B00A8
:101A20009950009B988D019B1882009BDB8D83420F
:101A300005D02100013000F0CBFE00280FD0019B23
:101A4000009A1B8AD28D9A420FD121003000FFF7F5
:101A500072FFAEE70A439A71D9E77B69D8E7019B29
:101A60000135188A013080B2DDE7019AE76A013357
:101A7000681C13828300FA181D49FB5A8B4229D136
:101A8000062825D8073080003F18230030007A88C8
:101A90003988FFF7C9FE0723019A7343128AE06968
:101AA0009B1818225343A56A028AED18038D9342AE
:101AB00001D1009A9385009B1B68002B02D0039AEA
:101AC000801898472A000621029801F01FFD70E750
:101AD000A81FD8E705498B42D5D9072155884D4322
:101AE00002F0D0FC6818CEE7111111C1FCFF000014
:101AF000FFFF00000B6870B51A0036321678002818
:101B000000D1013035331C78451E022C00D9032446
:101B10003100200002F09CFA012C09D82A00310083
:101B2000200002F0F9F93100200002F073FA70BDD4
:101B300000232A003100200002F00CFAF3E7F0B590
:101B4000072485B003929A6A012701928D796C432C
:101B50002418182060430290002004004E79A64209
:101B600014D802240125C643029A01998A18039FBA
:101B70001168E7402F4213D1314011600432013C1B
:101B8000F5D200209B689C8505B0F0BDE20094462C
:101B90003A000D68013465446D79AA401043DEE7D0
:101BA0000143EAE770B50C00190000231D00A242B2
:101BB0005D412C0002280CD0049A8A4200D21C00FD
:101BC000002806D1049802F05DFC4B42594149427D
:101BD0000C40200070BD000080220F210300064849
:101BE00012021A4200D070470139400852080029F9
:101BF000F7D10120F7E7C046FFFF00008B6810B562
:101C000019003B31828D0C78988EA418FFF7E4FF01
:101C100000230130800884425B4108205B001843A8
:101C200010BD00008B68F0B5190007683B31BA8D14
:101C30000D780400AD18802289B05202954200D37D
:101C40001C4D1A003C321678220089321278049218
:101C500022008832127884340592988EFFF7BCFFF8
:101C60003B000322079036331B781340721C9B18ED
:101C700001229A400692082223780392012B01D078
:101C800004230393FC8905986421604302F074FBEC
:101C9000039BF040E21AF240824200D90200079B07
:101CA000069904980095FFF77DFF0423184309B0B7
:101CB000F0BDC046FFFF0000424370B504000E00B7
:101CC000100064211D0002F057FBA11BE840E94011
:101CD000814200D9010003200F2906D801380729C5
:101CE00003D8013088428041404270BD10B50400E5
:101CF000220003688434D8898B6824783C33883286
:101D000008211B781278012C00D00439FFF7D4FF8A
:101D10008023184310BD0000F0B5002604000368BE
:101D200087B0029334331B78C76804930096049BF2
:101D3000009A934208D8A368002E5AD1029A928D35
:101D40001A870322DA8658E004223D68AB1C01930F
:101D5000DB7F1A40059203221A40019204221342AB
:101D600002D1019A012A3CD12B00363303931B7810
:101D70007F2B05D921003800FFF7B8FF039B1870AF
:101D8000059B002B05D021003800FFF74BFFAB1C53
:101D9000D8773B0084331B780822012B00D0043A0B
:101DA000019B012B0CD129000320A36836313C3361
:101DB0001B780978013301405B180199994052184A
:101DC000EB8993421CD380225201934218D80235EA
:101DD000EB7F8C379B07DB0FF618009B01330093DA
:101DE000A5E708221342D4D021002800FFF706FF00
:101DF000CDE70026044A1A87DA86300007B0F0BD26
:101E000080263601F9E7C046FF030000F7B500263B
:101E1000050034000768BB6872019B582900300038
:101E20000193FEF7EBFF044342D1A8222B68A96A75
:101E30004E331B7830009B1953432A00C918FFF713
:101E4000E1FABB6872019B18C62252007243696AAC
:101E50005B6889180198022201F0CCFA431E984170
:101E60008401012E26D1002C22D180222B6812065B
:101E70009B6811481B6819680A431A601A00FC32F3
:101E8000D467D26F0D491A680A401A6080228021F7
:101E9000D2009C500932C905FF329950084A1A50A5
:101EA0001C30195007481A501C30195006495A5016
:101EB0002000FEBD0126AEE70C050000FFFFFCFF81
:101EC000001010002C0500004C0500008B68F7B5D1
:101ED0001A00009043321578009A0C0000209542B9
:101EE00039D001221000072D35D8A721E940114231
:101EF00031D0009A2568072A00D9B8E0100002F016
:101F000031FA42420435B65BB6613F33187821009E
:101F1000FFF7F0FD2000FFF7D4FC2000FFF7E9FCFD
:101F2000002618227243E36921009B18002230002A
:101F30005A75FFF7B0FCC6235B007343A868616A5B
:101F40007701C019C91802224368006801F052FAEB
:101F5000002801D04020FEBDAB68464ADB59FC3367
:101F60005A675B6F012E0ED00126DAE72000FFF7DB
:101F7000A8FC2000FFF7BDFC0026182723684D337E
:101F80001B78B34205D8A368009A433300201A7027
:101F9000E1E73A007243E36930009B180022210018
:101FA0005A75FFF778FCAB687201D358314AFC339D
:101FB0005A675B6F0136E1E72000FFF727FF002833
:101FC000C9D1E0E73F3318782100FFF793FD2000E7
:101FD000FFF777FC2000FFF78CFC002618227243E5
:101FE000E36921009B18002230005A75FFF753FC6B
:101FF00073010193AB687201210030009F58FEF716
:10200000FDFE0028A7D1A8222368A16A4E331B78C1
:1020100030009B1953432200C918FFF7F3F9019AC6
:10202000AB68616A9B18C622520072433800891857
:102030005B68022201F0DEF9002800D08AE7AB6875
:10204000019A9B580B4AFC335A675B6F3B00FC3389
:10205000D867DB6F80233A681B0613433B603B68FD
:10206000054A13403B60012E8DD00126B6E70120C2
:1020700071E7C046111111C1FFFFFCFFF0B505006B
:102080000C00170087B0002A03D10126300007B0EA
:10209000F0BD0029F9D04B1E1B180493062BF4D871
:1020A0000E0093680193136802932B199B1B390050
:1020B0001800039300F08CFB002810D1013E002E85
:1020C000F3D1E2E73900280000F082FB002879D143
:1020D000013C049B9D1B2D19002CF3D1D5E7340046
:1020E000F7E739000220FFF7F1FE061ECED16B465E
:1020F000FA699B8913821385019A9385029BD58582
:102100009968C82301220868096A5B00C250CA5056
:102110003300944204D17B68DB685B0B9C43E3B2E1
:10212000019A01354032137018235D432B1F05932C
:10213000072539003000FFF7F5FB029BFA6A4E33A2
:102140001B789B195D430493039BED18AB00D15A98
:10215000D018484B99422BD1EB1F062D00D8EB1D10
:102160009B00D3185A88198830003B00FFF75CFBAE
:10217000A822049BBC6A5343059A9B18E1180423C8
:102180000A6813430B6018236B43E418019B1B6818
:10219000002B01D0F8699847029B70019B682200D0
:1021A0000621C05801F0B2F9012E60D00126BFE728
:1021B000314C2B00A142D3D9072143884B430399CB
:1021C0005B18CDE73800FFF73FFA4026002800D023
:1021D0005CE7019B43331B78022B00D081E7019B16
:1021E000039A9B8D934200D07BE7012C00D078E7C7
:1021F0007B68DA68802310009B0118401A4200D0E7
:102200006FE7019B40331B78012B00D069E7029BED
:102210009A68C8231168126A5B00CC50D450390008
:10222000FFF780FB019B1B68002B01D0F8699847E2
:10223000029B01209B681968BB681A6A0523134337
:10224000882292008B503900FFF76CFB019B1B68C2
:10225000002B02D0F86918309847029B9B68196AD6
:10226000BB685A6A05231343882292008B500026CC
:102270000CE7C046FFFF0000FCFF0000F0B503685C
:102280008BB007000093FFF747FD002405001822DC
:102290006243FB699B1800225A75BB6819004031E4
:1022A0000A70009A5133393212781978914203D06A
:1022B00038001A70FFF7D2F939002000FEF79EFDB2
:1022C0002843061E0FD1A8223B68B96A4E331B78FB
:1022D00020001B1953433A00C918FFF793F8250053
:1022E000012C00D0D4E0BB68984A1A61DB69002B4E
:1022F00001D038009847002E00D0C0E039000120FE
:10230000FFF7E4FD061E00D0B9E039000220FFF718
:10231000DDFD0400061E00D0B1E039000720FFF704
:10232000D5FD06000094FB6A00259C46FB68F96910
:102330000393009B10319B001800009A01910293B7
:102340006044009B01990B800488814B9C4200D023
:10235000A0E0D31F062A00D8D31D61469B005B5A1C
:102360008C214B430399CB181C008B342478022C0E
:1023700004D184331B780A2B00D00125019B07323E
:1023800018330193009B1C300E339342D9D1002D9A
:102390006DD03B6801209A68C82306240025116887
:1023A000126A5B00C850D050009B5C433B68182207
:1023B0009B68002104A85E5902F07EF8BA6AA30067
:1023C000D2180023D15804A819500433182BF9D17E
:1023D000099A604B06211A405F4B2035134309933D
:1023E000079B5E4ADB0FDB07134307935C4B02003E
:1023F000300008932A3401F089F8402DD6D180208E
:102400003B68584A9B6840001968FC314C6F044295
:102410004BD00426002A2AD00299FA6A52181900D1
:10242000403101910A218C46196814884E48FC31CC
:10243000844213D88C204443F868001904008B347C
:102440002478022C0AD10400843424780A2C05D084
:10245000654654884E696C43406826524348203391
:102460004867496F01991C329942DDD10026009BD3
:1024700001330093072B00D055E7002E1BD000241A
:102480003B6834331B78A34258D830000BB0F0BD02
:102490000124FCE6344913008C4200D85DE7072193
:1024A00043884B4300995B1857E7002A01D0013A53
:1024B000ACE70426DBE7FA682D4B1000D318019334
:1024C000A9235B009C468B300378022B0ED1536806
:1024D0001D00138F009300231900009CA1420BD311
:1024E00011683231202B0FD806230B70019B8C32E0
:1024F0008C309342E8D1C2E70A244C432C5BA342C0
:1025000000D223000131E8E7372B01D80523ECE79F
:102510006F2B01D80423E8E7634501D20323E4E7E6
:102520008D24A400A34201D20223DEE78D24E4001F
:10253000A34201D20123D8E70023D6E720003900C7
:10254000FFF7E4F8013406439AE7C0468919000012
:10255000FFFF0000CEFF00C02700FF006300FF0068
:1025600064004000084C0100FCFF0000111111C183
:102570001C070000F7B50B688C680500586823003D
:102580003F330E00197801F0F7FE1C4901F0F4FE0C
:1025900001908C200200F76AAD007B5BF6685A431D
:1025A0001749B2188B4203D97F19BB8B8B4201D8D4
:1025B00058433218200013683B300578988D023359
:1025C0002D189889DB7F454303200340022B00D15F
:1025D0006D0023004133E08E1B7886321B18208F5C
:1025E00012781B185B195343208D628D0199801856
:1025F000C01801F0C1FE05235843FEBD40420F0044
:10260000FCFF0000F0B51D0089B00F00019019001B
:102610000520FFF75BFC2B689A68116A14680B6849
:102620003A4A5B005B080B60A36A134018227A43A6
:10263000A362AB6A9B18DA6819695B690691079314
:102640000023029303930493314B13400593002816
:1026500055D126000621200002AA00F057FF23686A
:102660002C4AFC36134023602B4B30217367736F69
:1026700088239B00E25838008A43E2500622E15842
:102680000A430121E250E2580A43E250903BE150F4
:102690002900FFF76FFF2F6820490090386801F08C
:1026A0006BFE009B05214343180001F065FE80236B
:1026B0005B00726F1A4224D0AB687269198F0123D4
:1026C00092B25B1A9B18EA688632127853438022D2
:1026D0005202934200D3124B019A13600E4B736760
:1026E000736F3B004F331B7822681B034A37134339
:1026F0003A7812021343236043425841800009B0E4
:10270000F0BD0028D8D00138D3E7C046FFFFFFFE58
:10271000FFFFFF8FFFEEFFFF111111C140420F00BD
:10272000FFFF0000F0B5476803008668C5680469CC
:102730004169C2690220002F03D018684342584102
:102740004000002E00D10220002D00D10220002CDC
:1027500000D10220002900D10220002A00D102204D
:10276000F0BD30B504000120002B0CD0002A0AD0A7
:10277000A5012304A0B2AD0F022D0DD0032D03D06F
:10278000012D12D0012030BD200028402C420DD157
:102790009B0C9B009950F6E70125200028402C4215
:1027A00004D15B0CAB409952EDE711540020EAE7ED
:1027B000030000200C2B0AD8382253430869C018A4
:1027C00006230430C07F1840063843425841704702
:1027D000F8B5CD6A8600A85B0A4F0C00B84204D851
:1027E000FFF7E6FF012300280AD1AD19A88B0023CB
:1027F000B84205D82100FFF7DBFF03005A1E9341C2
:102800001800F8BDFCFF0000002243685A801A72CD
:1028100070470000F8B5D3691400DD6A52880600DD
:102820000F0001001868A847E17B03006588626813
:10283000002918D0954200D21500E2691068002BDB
:102840000AD1E0693B0084692A0031000068A04792
:10285000002808D00548F8BDD36931002A00984700
:102860000028EED0F6E70020F5E7C04603003E0959
:10287000F0B50023441C0825FF2031260439994275
:1028800000D1F0BDE25C50402A0047B24000C0B227
:10289000002F00DA7040013AD2B2002AF5D101339C
:1028A0009BB2ECE710B50400FFF7E2FF2368C01A03
:1028B000431E9841014B4042184010BD01003E09A3
:1028C0004B8810B59A08920080180A880C695A4300
:1028D0000B7B53431B19984200D3200010BD10B549
:1028E0000A7B012A09D90C884B8809696343591866
:1028F000814203D9013A5343181810BDC01AFCE7AE
:10290000F3B54B7B05000C00FFB0002B23D14E68C4
:102910004B889E421FD9310001F0B4FDE0696F1A67
:10292000436932009C4639006B4666460068B047F2
:102930006168280001F0A6FD03239943080062881E
:102940000749684401F0ECFD220069463800FFF7B2
:1029500061FF7FB0F6BD220028000149F7E7C046BD
:102960009C0B0020F0B5036985B001938361437B24
:102970000400002B0ED11F00017B0288019D5143F2
:1029800000930291029BBB4206D1A37B002B2ED168
:10299000019BA36105B0F0BD6B68009A6688039344
:1029A000934208D931002800FFF77CFF002802D1AC
:1029B000039B01950093B608B600AD190137E1E716
:1029C0006B68009A66880393934208D93100280007
:1029D000FFF768FF002802D1039B01950093B6081A
:1029E000B600AD190137029BBB42E9D1D0E7002701
:1029F000F9E7F8B54B7B06000C00002B02D0002352
:102A00003360F8BD8D694F8828003900FFF74AFF11
:102A1000002801D16B68F3E7A37B002B0CD023883F
:102A2000227B39005A43BB0853439B00ED18280012
:102A3000FFF738FF0028EDD02000FFF793FFA469CF
:102A400039002000FFF72EFF0028D8D16368D7E7B0
:102A5000F7B505000C001600002901D14248FEBD63
:102A60000028FBD0002AF9D020220021200001F00C
:102A700023FDA968E66121612B7963732B683068B7
:102A8000A360F3689847E36960609A6818682169F1
:102A90009047A268637B070086B20192002B18D191
:102AA0003900501E01F068FC01307043636880B249
:102AB000984200D91800802800D2802080B23900C6
:102AC000013801F059FC0130704360806188490889
:102AD00003E031006680012BF8D10B000198103B18
:102AE000A182E382013801F047FCA968013080B27D
:102AF0002080002901D11D48B1E72B68002BFAD0B6
:102B00002A79012AF7D8EB79012BF4D8AE79012E76
:102B1000F1D86B795F1E092FEDD8013673439C46BF
:102B2000012366469B1A73439B186288E7694243F8
:102B300038685A43BB6A98470028DCD0EB79002BF1
:102B400000D18BE7627B002A03D16A792273AA79CC
:102B500002E00122227300222000A273E373FFF738
:102B600001FF00207BE7C04600003E0902003E094D
:102B70007FB50B4E040030000D00FDF789FF030008
:102B8000002083420AD12268A3680192626829006A
:102B9000029201A832000393FFF75AFF04B070BD00
:102BA0006C0B0020F0B593B01C000290131E08912E
:102BB000039200D11FE1844663440593059AA368FC
:102BC0009A4200D917E1002900D114E1667B002E5A
:102BD0000ED06346E0692169039A44695918006878
:102BE000089BA0470190002836D0864B019333E024
:102BF0002388039A310008980E9301F05DFC2100B0
:102C000011A8FFF7F6FEA78A0298390001F0B4FB7D
:102C1000059B05003900581E01F0AEFB431B0B93CA
:102C200001330F93638807965D4323690196ED187E
:102C3000029B0693089B09930F9B079A93420ED819
:102C40002100A069FFF74BFE002306000393039ABF
:102C50000E9B934200D98CE0019813B0F0BD237B0A
:102C60000C936788012B0CD92100A069FFF737FE70
:102C700000260500238804937B080A93049BB34233
:102C800051D8A38A069819000A9301F0FBFB039B15
:102C9000079A04930B9B0D91934202D90A9B5B1AEE
:102CA000049339002800FFF7FDFD061E11D0A37B19
:102CB000002B51D022880C9B390053431A00BB08CB
:102CC00053439B00ED182800FFF7ECFD002843D18B
:102CD0004D4E0D9B0A999C46E06961444769099BEA
:102CE000049A00686918B847237B012B04D8280090
:102CF0002100FFF7E5FD0500049A039B94469B1A0B
:102D00000393069B63440693099B634409933F4BDB
:102D10009E4203D0019B002B00D01E00079B019612
:102D20000133079388E721002800FFF7C9FD05005C
:102D300020693900281A01F01FFB049901F0A2FB59
:102D40000A9B5943069B994204D80A9B5918069B33
:102D5000994296D8013691E70021049A099801F02A
:102D6000ABFB6B68002B02D12E68002EBCD0274E27
:102D7000BAE721003000FFF7A3FD6788060039009D
:102D8000FFF790FD002812D0A37B002B0CD02388E6
:102D9000257B39005D437D43AD10AD0075192800DA
:102DA000FFF780FD002803D0039B01334EE7350079
:102DB000AF68059BBB42F7D9E868029B381883428D
:102DC000F2D2BB4219D20021FB1A029A0492BA42F3
:102DD00000D20497089AE769D318059A944682426C
:102DE00000D98446624604981035121A691838686A
:102DF0007D69A847D8E7064BF8E6029BD91B00235C
:102E0000E3E7C04602003E0904003E0901003E0916
:102E100000003E09F0B595B01F0005900192002A10
:102E200000D17AE11318BA68934200D975E10029FC
:102E300000D172E17C7B0391002C42D07D68290097
:102E400001F020FB019B481E0C00C018290001F076
:102E500093FA431C3D690693059B5D1900232D1BC6
:102E60000293029A069B934203D80024200015B0D7
:102E7000F0BDF869AA4B466929007A680068049396
:102E8000B0477E68019B361B9E4200D91E00049B02
:102E900032001819039901F043FB39002800FFF7AD
:102EA0002FFD041EE2D10322019BBD619B1B0193F8
:102EB000039B9B1903937B689343ED18029B01339B
:102EC000CEE7019BF98A581E01F056FA03000E90D6
:102ED0000133390013A81093FFF78BFDBB690794EA
:102EE000029302983900FFF7EBFC8D4C139D0021F3
:102EF0007A88029001352000139501F0DDFA059BD8
:102F00000799A3600E9B6560FA8A8B4200D1019AF3
:102F10000399E260834801F003FB7E883900F308DF
:102F200002980693FFF7DBFC31000490FFF7BAFC30
:102F300000285BD1069BF86999006318049CBA8A43
:102F4000611845690068A84739000298FFF7C7FC77
:102F5000734B3D885B6808939D425FD93B6904933E
:102F6000002D00D1C7E0029B7C8838692100181A27
:102F700001F002FA290001F085FA6608714373181E
:102F80000B93E408664BA400E318119300231E0082
:102F900009910D930A930A9A089B934244D1604C7D
:102FA00079882000FFF764FC390020600298FFF761
:102FB000A7FC041E00D059E7BB7B002B00D09CE08F
:102FC000029B019ABB61FB8AD21A0192059AD21820
:102FD0000592039AD3180393079B01330793079A2B
:102FE000109B934200D97CE734003FE7BB7B002B6A
:102FF000AAD03A883B7BB50853435D43049BAD00A0
:103000005D1931002800FFF74DFC00289CD1069B7C
:10301000F86999006318BA8A691892E73900FFF7CE
:103020004FFC089504909BE7089B0A9A013B93424A
:103030004CD97C8804982100FFF734FC061E49D047
:10304000BB7B002B3AD03B883A7B21005A43A30834
:1030500053439D00049B5D192800FFF723FC0600E5
:10306000002E2BD1AB6800260693069A0B9B934249
:1030700024D9EC6813190C930C9A099B93421DD226
:10308000BB8A069819000F9301F0FCF9099B069A78
:103090000800934220D80B9A0C9933008A4201D23F
:1030A0000699541A29001031C918119BC0180D9B9C
:1030B000002B18D0220001F033FA002604983900C2
:1030C000FFF7FEFB0A9B0490013363E70123144DD5
:1030D0000D93C5E7049DC5E70F9B0C9A5B1A0999F0
:1030E0003000541ADEE7FD6903006E69220028688B
:1030F000B0470D9EE2E70C4E51E73A883B7B78885B
:10310000534380085843029B800039001818FFF78A
:10311000F7FB041E00D153E7A8E6044CA6E6C04620
:103120009C0B0020AC0B002003003E0900003E0970
:10313000BFF35F8F9020124A124900064B68013A94
:103140000340002A13D0002BF8D18B6800201A0FFF
:1031500011070A2A0AD0F022120691420BD10A4A1C
:103160009B18132B09D8094A9B0098587047002BCD
:10317000EBD00748FAE70748F8E70748F6E7C04604
:10318000E903000000001040FFFFFF0FEC530000B8
:103190000900500023005000FF005200C023DB0252
:1031A000984204D2C0B243425841C0B27047802214
:1031B000034BD200C3189342F4D30020F6E7C04675
:1031C000001C00F0C023F0B5DB0206000C00CBB001
:1031D000984261D2030A30000193FFF7DFFF002815
:1031E00000D168E0002C66D08022210052000AA89D
:1031F00001F096F9C021314B314AF31849018B4255
:103200004ED2DB0A1B0613430893FF232D4D09936F
:103210002D4B08AFAF606B60FFF78AFF041E38D1FB
:10322000FDF7D3FB294B03900493294B029305939D
:1032300004ABAB60274B6B60FFF77AFF8022264B15
:103240001206041E1A6321D1244BAB60244B6B6021
:10325000FFF76EFF041E19D1224BAF609E4221D9A9
:10326000214B0893019B0993204B6B60FFF760FF94
:103270001F4A06AB0692029A04000792AB601D4BF0
:103280006B60FFF755FF002C00D104000398FDF799
:10329000A0FB20004BB0F0BD174BC3181B0A9AE7E8
:1032A000730CAFE7154B0893019B089A1B0413435B
:1032B0000893134BD9E7134CEBE7C046002000F00E
:1032C000B6D700000000104004000080B6E90000FE
:1032D0009C0D00201600008000000340B6E80000AE
:1032E00015000080FFDFFF0FB6EB00001800008024
:1032F000B6EA000017000080001C00F0B6D80000FD
:103300000500008021005200F0B5002852D0002AAC
:1033100050D0012413688C40002B49D14464536879
:1033200003279C4607231E004F43BE408568B543D4
:1033300066463340BB401D433307DB0F8B4085603F
:1033400085698F00A5432B430F25AC46BD406646DB
:103350008361194B194CC3181B0A1B191B021C68EB
:103360004900AC432500147A3440BC402C431C6017
:1033700003248C400325C368A343D4682C408C40AD
:1033800023438024C360136964041B0681682340BF
:103390000B4C21400B438360536980225B069204EF
:1033A00081681340074A0A40134383600020F0BD40
:1033B0000464B4E70448FAE70000FCBF00024000E0
:1033C000FFFFFFFEFFFFFFFD01005A00002808D0AD
:1033D000002906D0002A04D01078002803D11170EB
:1033E00070470248FCE70248FAE7C04601001E01A8
:1033F00003001E01F0B5002A00D17BE01B78934248
:1034000000D079E00B68A02703604B68002443607C
:103410008B68FF008360CB68C3600B6903614B69F5
:1034200043618B698361CB69C3610B6A03624B6A39
:1034300043628B6A8362CB6A03630B6B43634B6BA0
:1034400003648B6B4364CB6B83640B6C0A6FC36444
:103450004B6C03658B6C4365CB6C83650B6DC365EF
:103460004B6D03668B6D03670300FC335A674A6F2D
:103470009A678A6FDA670B1DDA6FC8235B00C25048
:103480000A003D32FF3215686301C318DD515568EB
:103490001A4E01349D519568AC46A1256646ED0053
:1034A0005D192E60D568AC466646154D5D192E60D7
:1034B000A2261569F6009B191D601432042CE2D176
:1034C0000D0000239C359A00AC581A00C0329200BF
:1034D00001331450202BF6D100231D31FF319A0007
:1034E0008C585A1CFF32920001331450082BF6D12D
:1034F0000020F0BD0348FCE70348FAE7040500009C
:103500000C05000001001E0103001E0110B58324FC
:10351000A400062916D113680351012384219B00BE
:10352000D458D21885238900445051689B00C1505B
:1035300091680433C150D1680433C1501269043317
:10354000C25010BD00230351E8E70000F0B5954CD0
:103550000D008BB0844200D022E1002900D11FE190
:10356000C02223689205134023608B78226802935F
:103570000B79E02005934B780599DB0109050B4396
:103580001343AA792978D2061343EA7909019207ED
:103590001343702211400B4302990001490201407C
:1035A00080200B43E978800149030140C0200B4390
:1035B00069798004090601400B43802101202360C2
:1035C000636809030B4063602B7A61680340687A83
:1035D000AE7A400003430B43B1000B43E97AC900C4
:1035E0000B43697BC9010B43E97BC9070B43297B6B
:1035F00009010A40C0211343AA7BC90252040A40B0
:10360000134363606B692969674A1B04890513408A
:10361000890D0B432361EB691B041340AA699205D2
:10362000920D134363612B6A6A6A9BB212041343BF
:10363000A3612B0028331B789B07E361A96F5B4BC9
:103640004808C01800F098FE002283B20893EB6A85
:1036500094469BB2236273425E4173420192099386
:10366000930003932B00910030335958002949D01F
:103670000B78039348780490049B08791B028E789A
:10368000CF7806930303079377230398BF0218406C
:1036900003000698760203433B438027BF00102AAD
:1036A00034D037401F43C02307989B0103401000CC
:1036B00020303B438000235000230498984208D1D7
:1036C0000298072805D1802309981B010340384838
:1036D0001B18384856003352374B089E9000C6508E
:1036E0004B798979102A1CD0002B04D00123604625
:1036F000934018438446002904D001239340019944
:10370000194301910132112AAAD114E03E401E430F
:10371000C02307989B011840A02330439B00E05032
:10372000CAE784229B0149010B439200A350A2588F
:1037300086229200A3508823019A9B00E250E3580E
:103740008A23019A9B00E25062460833E250E35814
:103750008E239B00E2506B6F002B0AD0C1221749C9
:103760009200A1501968043AA1505A68D0239B00D6
:10377000E250F0231B01E2583F2A02D0E258002A0F
:1037800001D10B22E250E022059B9200DB07A350FF
:1037900080230020226B9B05134323630BB0F0BDF5
:1037A0000748FBE700003A400000FF0300803801B3
:1037B00000F8FFFFF80D0020B40D0020FFFFFF3FD1
:1037C00001000600036810B5002B07DB80230268A8
:1037D0001B0613430360022000F0DCFC10BD00292F
:1037E00007D0012904D1802342685B021343436060
:1037F000704701234362FBE703000F2904D86031BF
:103800008900085880B2704700201029FBD1A422FB
:1038100092009858F6E710B5FFF7EEFF00B210BD22
:10382000C02203000068120210B50824104200D123
:103830002419822292009A580020D205D20DA24269
:1038400003D0902292009950013010BD80239B003C
:1038500010B5C458E93BFF3B1C4209D090235200ED
:103860008A189B00914208D00C880231C450F9E7B5
:1038700090238A189B00914200D110BD0C78013131
:10388000C450F8E7C02370B505681B0208241D4228
:1038900000D1241982239B00C358DB05DB0DE41AF9
:1038A000944200D914002200FFF7D0FF200070BD21
:1038B000F8B5802306000D0014009B00C758E93BB3
:1038C000FF3B1F40002C00D1F8BD22002900300032
:1038D000FFF7D8FF0300002F00D04300ED18241A93
:1038E000F0E70000F7B5002800D1BBE0002900D1C7
:1038F000B8E00C78022C03D100238D7F9D4201D0CB
:103900004B68013B0F260D7F33402D042B43802550
:10391000AD042B43036008238E680568B3429B41C6
:10392000514F5B423D409B032B43C0250360AD04D8
:1039300023062B400364072330274D7B013D1D40A8
:103940008B7B1B013B4000938B7C4F7F9B02BF0115
:103950003B434F1CFF7F3F033B430F7C3F023B43F6
:103960004F7C7F023B430F0030373F783F063B439D
:103970000193F023CF6A1B03013F3F041F40019BCB
:103980003B43009F2B433B4383640B7B1B029C46C2
:10399000CB7B002B63D1A31E5F427B415B021F27C1
:1039A000013E3E4067463E43C0273343BF00C351FC
:1039B000FF278B693F041B043B404F69013CFFB26A
:1039C0003B43C427BF00C35163425C410023CF7F08
:1039D0009F4200D02302009F24043D431D438023C7
:1039E00034439B004564C450C125FF244B6BAD009C
:1039F000234043518B1C4D6ADB7F25405B061D43F2
:103A0000CB1CDB7F013B5E4273411B061D430B0059
:103A100028331B78013B5E4273411B041D43CB6B73
:103A2000056523400634FF3403518B6B0F4C234054
:103A30000F4C03510B6C0F4C23400F4C03510023D0
:103A400010009A420AD018005360536313609360C9
:103A50001362D360D362897F30321170FEBD802340
:103A60009B009CE70548F9E7FF3FFFFF6D0B000057
:103A7000C80F000073070000880F00000160AA0053
:103A80000020074B1A6B824208DA064A06489B5808
:103A90001C229B0013405843044BC0187047C0467B
:103AA00000000340080F000040420F0000366E0186
:103AB000024B18684000C00F7047C046000022400B
:103AC000F7B5050001285BD82E4E336B002B02DBC7
:103AD0002D4B1800FEBDFFF7EBFF0023A842F8D0E6
:103AE0002A4C9D4210D12368294A13401C2223608E
:103AF000284BF3589B001340274A9B181B78274AF2
:103B0000DBB2B3500023E4E72368002BE0DA0022A5
:103B1000224B234FF250FFF7B3FF8023A022DB019B
:103B2000C018C30B013B5B0552035B0D1343A3603D
:103B30003B6B3020019300F039FB80238026FF256A
:103B40002268DB0513432360F604AD05012000F075
:103B500007FBA368134A134032002A401343A360B3
:103B60008023DB04F6188823DB059E42EED101207A
:103B700000F0F6FAA3681D43019BA5603B63C1E713
:103B8000094BA6E70000034003004A000000224062
:103B9000FFFFFFBF080F000065E3FF0F0C0F0000E1
:103BA00000001040FFFF3FC001004A00F7B5324C53
:103BB0000500236B002B5BDA304B984211D0304B61
:103BC00098420ED02F4B98420BD02F4B984208D0E2
:103BD0002E4B984205D02E4B984202D02D4B984246
:103BE00048D1FFF74DFF0027A8423FD02A4B2B4971
:103BF000E81800F0C1FB0500FCF7E7FE0190FFF7B5
:103C000057FF0600B84202D03800FFF759FF0022E4
:103C1000234F244BE251EB181B782349DBB263504E
:103C2000F1231B01E250214B214AEB181B78322073
:103C3000DBB2A350AD08FCF7BFFE002D0DD007226C
:103C4000E359322093436A1E1343E351FCF7B4FE59
:103C50000722E35993432B43E351002E02D0300057
:103C6000FFF72EFF0198FCF7B4FE00273800FEBDD9
:103C7000104FFBE7104FF9E70000034000366E01DC
:103C8000003FAB010048E80100512502005A6202E2
:103C900000639F02006CDC0200CA91FE40420F00EC
:103CA000080F000065E3FF0F0C0F00004CE3FF0F4F
:103CB000180F000003004A0001004A000020054BD5
:103CC0009A68824204DADB68DB0701D4024B186889
:103CD0007047C04600002F401C0E002010B5FFF7B3
:103CE000EDFF002814D180220A4B1206196A023017
:103CF0000A431A620822196A013A01431962196AD1
:103D000081431962002AF6D11A6A520052081A62D7
:103D100010BDC04600002F40C021064A890300059F
:103D200010B55369084004490B4018435061FFF730
:103D3000D5FF10BD00002F40FFFFCFFF0E4A10B58A
:103D400053699B029B0F0CD15369002B03DA0120AE
:103D50009369034204D1FFF7B1FF431E984140002D
:103D600010BD032BF7D1002053698342F8DA0123F9
:103D700090691840F4E7C04600002F4000280DD19C
:103D800000290BD0064B5B699A04920E0B704A70A7
:103D90001A045B03920F5B0F8A70CB707047C046AA
:103DA00000002F4037B5051E27D1032216490B68A6
:103DB0005B081340022B18D1FFF762FE0400124B80
:103DC0005B69002B1EDA01AD29000020FFF7D6FF4A
:103DD0006978AB78013199402B78600858434B08DB
:103DE000C01800F0C9FA40000DE00B685B081340F2
:103DF000012B02D1054B1C68E1E7FFF75FFF0400D0
:103E0000002DDCD000203EBD00002F40240E0020FD
:103E100070B504000A2847D8244B0122C34013423E
:103E200042D00321224D0020AB6A0B409C4212D0AD
:103E3000844209D12B6B83420CDA0322AB6A002047
:103E400093432343AB6206E0012C05D1194B1B6859
:103E5000002BF2D1184870BD022C06D1FFF76EFF7F
:103E60000028F7D0FFF73AFFE7E70A2C08D1FFF761
:103E700025FF0028EED00220FFF74EFF0224DCE7EA
:103E8000062CE7D10D4B59690029E3DA9B691342EF
:103E9000E0D0FFF713FF002804D00020FFF73CFF1D
:103EA000043CCAE70320E7E70548D4E747040000DD
:103EB00000000340200E002003004A0000002F40B5
:103EC00001004A00032270B50124114B9D6A9B6AD0
:103ED000AD081540AC401340012B0AD0022B0BD08B
:103EE0000020834201D1FFF7CBFD64082018E84091
:103EF00070BD084B1868F8E7FFF720FF012803D1D1
:103F00000020FFF74FFFF0E7FFF7D8FEEDE7C046D0
:103F100000000340200E002010B5012812D10E2908
:103F200010D880235B029A420CD2C020064B890035
:103F30008000C9180B58054C120223401A430A503E
:103F4000002010BD0248FCE700000140FF0000FF18
:103F500001004A0030B504000800022C1AD10429DF
:103F600031D8802149028A422DD21F2B2BD88024A0
:103F7000164980004018E4000159154D12022940ED
:103F80000A43F82102510259DB008A4313430351CB
:103F9000002030BD032C16D1002914D18021490402
:103FA0008A4210D21F2B0ED8A021084CC900655898
:103FB0001202EDB22A43F82562506258DB00AA4390
:103FC00013436350E5E70348E3E7C04600000140C0
:103FD000FF0000FF01004A00172803D8012903D180
:103FE0000E2A05D909480AE0022909D1042AF9D87C
:103FF000074B8901403080001143C15000207047B9
:104000000329EFD1002AF3D0ECE7C04601004A00B3
:1040100000000140012803D10E2905D909480BE011
:1040200002280AD10429F9D8074B80010843034329
:104030000020064A1360136870470328EED1002958
:10404000F2D0EBE701004A0000FF008000000140D1
:10405000012803D10E2905D909480BE002280AD10D
:104060000429F9D8802380010843DB05034300209D
:10407000044A136070470328EED10029F2D0EBE721
:1040800001004A000000014002280DD8084A01281A
:1040900002D1136B002B09DA3021936A00018B43A4
:1040A00003430020936270470248FCE70248FAE7A6
:1040B0000000034001004A0003004A00064B10B50F
:1040C0009A68064C10308300A24202D19858995049
:1040D00010BD034AD058FBE700ED00E000000020CF
:1040E0000000000070B5041E2FD0FF26032532000B
:1040F0000023C05E64680540ED00AA40A40134407E
:10410000D243AC4083B2002813DBC026104D830895
:104110009B005B19B6009D592A4022439A510D4BD2
:1041200000249A680C4B9A4201D1FFF7C7FF200088
:1041300070BD0F252B40083B064D9B089B005B196B
:10414000DD692A402243DA61E9E7044CEFE7C04623
:1041500000E100E000ED00E000000020010056005A
:1041600070B5802504002D02AC4205D8064B1868B6
:104170006043FCF721FC70BD044B1868FCF71CFC85
:10418000034BE418F0E7C046E8040020E4040020F4
:104190000080FFFF10B5034B1B785843FCF70CFC65
:1041A00010BDC046EC040020FEE7000000231028EC
:1041B00004D9203383429B415B42013303200749EA
:1041C0000A6B82431A43581E834110200A630A6B0C
:1041D0001B01824313430B637047C046000010402D
:1041E000074B10B51B68DB0309D50024054BA20063
:1041F000D358002B00D098470134052CF6D110BDC0
:1042000010E000E0280E00200222044B19680A4347
:104210001A60012219680A431A60704710E000E032
:104220000421044A8000136808408B43184310603F
:104230007047C04610E000E070B500250C00094B47
:10424000094A1D605D609D60DD601D61074B2402B1
:10425000DA63FFF7E5FF064B240A5C609D60FFF719
:10426000D3FF70BD280E0020E141000000000020B7
:1042700010E000E0F0B5002800D16EE0002A00D187
:104280006BE080279668FF02B6043E40C027536863
:10429000D4681B061B0C3343167FBF02334326042E
:1042A0003E40E02715693343FF042E063E4033436A
:1042B0000E1DB601335089011368002C42D14618F7
:1042C000FC36F460002D05D155694418FC34256195
:1042D000956965614018F021F024FC308361136B0F
:1042E00009011B020B40916B2403090421400F2498
:1042F0000B43916AC02521400B43116C946C090754
:10430000090C0B43FF2124010C402343302443625A
:10431000D36AAD001B012340546B24022C400325BB
:104320002343546A2C402343D46BA40121400C2422
:104330000B43516C890021400B438362136AC363B2
:104340000020F0BD012C03D14418FC34E360B9E730
:1043500001264418FC34E660B4E70148F1E7C046A2
:104360000100B60002B4714649084900095C4900E1
:104370008E4402BC7047C046002243088B4274D36F
:1043800003098B425FD3030A8B4244D3030B8B4256
:1043900028D3030C8B420DD3FF22090212BA030C5F
:1043A0008B4202D31212090265D0030B8B4219D340
:1043B00000E0090AC30B8B4201D3CB03C01A524160
:1043C000830B8B4201D38B03C01A5241430B8B42A8
:1043D00001D34B03C01A5241030B8B4201D30B0391
:1043E000C01A5241C30A8B4201D3CB02C01A5241B8
:1043F000830A8B4201D38B02C01A5241430A8B427B
:1044000001D34B02C01A5241030A8B4201D30B0263
:10441000C01A5241CDD2C3098B4201D3CB01C01A7D
:10442000524183098B4201D38B01C01A5241430987
:104430008B4201D34B01C01A524103098B4201D375
:104440000B01C01A5241C3088B4201D3CB00C01AE2
:10445000524183088B4201D38B00C01A524143085A
:104460008B4201D34B00C01A5241411A00D201467F
:10447000524110467047FFE701B5002000F006F8F2
:1044800002BDC0460029F7D076E770477047C046A6
:10449000074B10B50400002B02D0002100E000BF44
:1044A000044B1B68002B00D09847200000F042F816
:1044B000000000003C0E002003008218934200D14F
:1044C000704719700133F9E770B500260C4C0D4D9B
:1044D000641BA410A64209D1002600F02DF80A4C56
:1044E0000A4D641BA410A64205D170BDB300EB5861
:1044F00098470136EEE7B300EB5898470136F2E7EC
:104500002405002024050020280500202405002083
:1045100003000A7801311A700133002AF9D170477B
:10452000002310B59A4200D110BDCC5CC4540133B5
:10453000F8E70000FEE7C046F8B5C046F8BC08BC86
:104540009E467047F8B5C046F8BC08BC9E4670470A
:10455000006CDC02006CDC02F000002000000000B7
:10456000000000000000000000000000000000004B
:104570000000000011000D00E80300007800C800F2
:10458000C80007000D01000A0004010201281455AB
:104590000A281401000000000001000200020000CF
:1045A0000846000000010000104600000001000065
:1045B0001846000000010100204600000001010033
:1045C0002846000000010100304600000001010003
:1045D00038460000000100004046000000010000D5
:1045E000484600000002000058460000000201009A
:1045F000684600000002010078460000000200004A
:10460000884600000001000000030440050400008B
:1046100000030440040300000000044002060100FF
:1046200000000440030701000000044000040100F2
:1046300000000440010501000003044000010000E7
:1046400000030440010200000003044005040000D0
:1046500000030440040300000000044002060100BF
:1046600000000440030701000000044000040100B2
:1046700000000440010501000003044000010000A7
:10468000000304400102000000030440070600008C
:1046900098460000000100000003044006050000E9
:1046A000840100205C040020A04500000000000000
:1046B00000000000000000000000000018090020B9
:1046C0000000000010000000B408002000000000FE
:1046D00000000000000000000100010000000000D8
:1046E00000000000000000000000000000000000CA
:1046F00000000000090204030400000000000000A4
:104700003C0103070C400000640064000500000049
:10471000000000000000000015140F0005004B0011
:1047200000000100010101010A000002BC0100209B
:1047300066040020A8450000000000000000000002
:10474000000000000000000022090020000000001E
:1047500010000000B508002000000000000000006C
:104760000000000001000100000000000000000047
:104770000000000000000000000000000000000039
:104780000902040304000000000000003C010307CC
:104790000C40000064006400050000000000000000
:1047A0000000000015140F0005004B00010001007F
:1047B000010101010A000002F40100207004002040
:1047C000B0450000000000000000000000000000F4
:1047D000000000002C090020000000001000000074
:1047E000B6080020000000000000000000000000EB
:1047F00001000100000000000000000000000000B7
:104800000000000000000000000000000902040396
:1048100004000000000000003C0103070C40000001
:1048200064006400050000000000000000000000BB
:1048300015140F0005004B000000010001010101EB
:104840000A0000022C0200207A040020B845000073
:104850000000000000000000000000000000000058
:10486000360900200000000010000000B7080020FA
:104870000000000000000000000000000100010036
:104880000000000000000000000000000000000028
:104890000000000000000000090204030400000002
:1048A000000000003C0103070C40000064006400AD
:1048B00005000000000000000000000015140F00BB
:1048C00005004B0001000100010101010A00000286
:1048D0006402002084040020C045000000000000A5
:1048E000000000000000000000000000400900205F
:1048F0000000000010000000B808002000000000C8
:1049000000000000000000000100010000000000A5
:104910000000000000000000000000000000000097
:104920000000000009020403040000000000000071
:104930003C0103070C400000640064000500000017
:10494000000000000000000015140F0005004B00DF
:1049500002000100010101010A0000029C02002086
:104960008E040020C8450000000000000000000088
:1049700000000000000000004A09002000000000C4
:1049800010000000B9080020000000000000000036
:104990000000000001000100000000000000000015
:1049A0000000000000000000000000000000000007
:1049B0000902040304000000000000003C0103079A
:1049C0000C400000640064000500000000000000CE
:1049D0000000000015140F0005004B00030001004B
:1049E000010101010A000002D40200209804002005
:1049F000D0450000000000000000000000000000A2
:104A00000000000054090020000000001000000019
:104A1000BA080020000000000000000000000000B4
:104A20000100010000000000000000000000000084
:104A30000000000000000000000000000902040364
:104A400004000000000000003C0103070C400000CF
:104A50006400640005000000000000000000000089
:104A600015140F0005004B000200010001010101B7
:104A70000A0000020C030020A2040020D845000018
:104A80000000000000000000000000000000000026
:104A90005E0900200000000010000000BB0800209C
:104AA0000000000000000000000000000100010004
:104AB00000000000000000000000000000000000F6
:104AC00000000000000000000902040304000000D0
:104AD000000000003C0103070C400000640064007B
:104AE00005000000000000000000000015140F0089
:104AF00005004B0003000100010101010A00000252
:104B000044030020AC040020E04500000000000049
:104B10000000000000000000000000006809002004
:104B20000000000010000000BC0800200000000091
:104B30000000000000000000010001000000000073
:104B40000000000000000000000000000000000065
:104B5000000000000902040304000000000000003F
:104B60003C0103070C4000006400640005000000E5
:104B7000000000000000000015140F0005004B00AD
:104B800004000100010101010A0000027C03002071
:104B9000B6040020E845000000000000000000000E
:104BA000000000000000000072090020000000006A
:104BB00010000000BD080020000000000000000000
:104BC00000000000010001000000000000000000E3
:104BD00000000000000000000000000000000000D5
:104BE0000902040304000000000000003C01030768
:104BF0000C4000006400640005000000000000009C
:104C00000000000015140F0005004B000400010017
:104C1000010101010A000002B4030020C0040020C9
:104C2000F04500000000000000000000000000004F
:104C3000000000007C0900200000000010000000BF
:104C4000BE0800200000000000000000000000007E
:104C50000100010000000000000000000000000052
:104C60000000000000000000000000000902040332
:104C700004000000000000003C0103070C4000009D
:104C80006400640005000000000000000000000057
:104C900015140F0005004B00050001000101010182
:104CA0000A000002EC030020CA040020F8450000BE
:104CB00000000000000000000000000000000000F4
:104CC000860900200000000010000000BF0800203E
:104CD00000000000000000000000000001000100D2
:104CE00000000000000000000000000000000000C4
:104CF000000000000000000009020403040000009E
:104D0000000000003C0103070C4000006400640048
:104D100005000000000000000000000015140F0056
:104D200005004B0005000100010101010A0000021D
:104D300024040020D40400200046000000000000ED
:104D400000000000000000000000000090090020AA
:104D50000000000010000000C0080020000000005B
:104D60000000000000000000010001000000000041
:104D70000000000000000000000000000000000033
:104D8000000000000902040304000000000000000D
:104D90003C0103070C4000006400640005000000B3
:104DA000000000000000000015140F0005004B007B
:104DB00006000100010101010A000002700000016B
:104DC00000000000070000010003000001000000D7
:104DD0000700000031000000020000000200000097
:104DE00002000000000000000000000000000000C1
:104DF00001000000BC4D00000000000000000000A9
:104E000000000000000000000000000000000000A2
:104E10000000000000000000000000000000000092
:104E20000000000000000000000000000000000082
:104E300000000000000000000000000088130000D7
:104E40000000000008000000080000000002000050
:104E50000000000000000000000000000000000052
:104E60000000000000000000000000000B00000037
:104E7000000000000700000000000000000000002B
:104E8000000000004B1D00000500000000000000B5
:104E90000000000002000000004000000040000090
:104EA00000000000010000000300000000000000FE
:104EB00003000000000000000300000000000000EC
:104EC00003000000000000000300000001000000DB
:104ED00001000000090000000000000000000000C8
:104EE00000000000000000000100000009000000B8
:104EF00000000000000000000000000000000000B2
:104F00000100000001000000090000000000000096
:104F10000000000000000000010000000E00000082
:104F20000900000000000000000000000000000078
:104F30000100000009000000000000000000000067
:104F4000000000000000000001000000060000005A
:104F50000E00000000000000000000000000000043
:104F600001000000060000000E000000000000002C
:104F700000000000000000004E46540D000000003C
:104F80000000000000000000000000000000000021
:104F90000000000000000000000000000000000011
:104FA0000000000000000000000000000000000001
:104FB00000000000000000000000000000000000F1
:10520000FD02000107030101110302011B03030159
:10521000250304012F030501390306014303070198
:105220004D0308015703090161030A016B030B01D8
:105230004A00000582000105BA000205F2000305DC
:105240002A010405620105059A010605D201070538
:105250000A020805420209057A020A05B2020B0594
:105260001100108100000000000000001400000088
:10527000C800C800000000000000000003000F008C
:10528000000001000000000000000000000000001D
:10529000FF008E00000000006501000023003200C6
:1052A00032002300000000000100008000010080A7
:1052B00001000080000100800000000000000000EC
:1052C00000000000000000000000000000000000DE
:1052D00010100000000000000000000000000000AE
:1052E00001000000000000000000000000000000BD
:1052F00000000000000000000000000000000000AE
:10530000000000000000000000000000000000009D
:10531000000000000000000000000000000000008D
:10532000000000000000000000000000000000007D
:10533000000000000000000000000000000000006D
:10534000000000000000000000000000000000005D
:10535000000000000000000000000000000000004D
:10536000000000000000000000000000000000003D
:10537000000000000000000000000000000000012C
:10538000000000000000060802020080000007077D
:105390000303028400200284001000C03F000000CC
:1053A00023307600000000010140000001000007EA
:1053B00003030011450054000000000101400000FB
:1053C000010000073F0000002330760000000001CC
:1053D00001400000010000070303001145005400D4
:1053E0000000000101400000010000070100520020
:1053F000FF00520004005200040052000500520059
:10540000FF0052000000000008005000090050009A
:10541000FF005200FF005200FF005200FF00520048
:10542000FF005200FF005200FF0052002100520016
:10543000FF00520021005200210052000000000035
:0854400018ADFF7F0100000020
:0C5448005C540000C00000201B010000AC
:08545400500500203C0200009D
:10545C005045000068010020C4080020A046000050
:10546C008401002008460000984600006C050020CE
:10547C00000000009C0500209C0900203001002049
:10548C0000002940EC0A0020000404400000000049
:10549C0000040440010000000000000090460000E1
:1054AC0000002A40ED0A0020000704400000000024
:1054BC000007044001000000000000000000000094
:1054CC0000000000010000000600000007000000C2
:1054DC00080000000B0000000C000000020000009F
:1054EC00030000000400000005000000090000009B
:1054FC000A000000FDFF00004FA3000000000000A8
:10550C00000000000000000001000000000000008E
:10551C0000000000A0000000000000006400640017
:10552C001E00100010000000000000000000280009
:10553C0028000A0003020100000000000000000027
:10554C00000414204000000004008000A0000000B3
:10555C0000000000640064001E0010001000000039
:10556C00000000000000280028000A0003020100CF
:10557C0000000000000000000004142040000000A7
:10558C0004008000A0000000000000006400640023
:10559C001E00100010000000000000000000280099
:1055AC0028000A00030201000000000000000000B7
:1055BC00000414204000000004008000A000000043
:1055CC0000000000640064001E00100010000000C9
:1055DC00000000000000280028000A00030201005F
:1055EC000000000000000000000414204000000037
:1055FC0004008000A00000000000000064006400B3
:10560C001E00100010000000000000000000280028
:10561C0028000A0003020100000000000000000046
:10562C00000414204000000004008000A0000000D2
:10563C0000000000640064001E0010001000000058
:10564C00000000000000280028000A0003020100EE
:10565C0000000000000000000004142040000000C6
:10566C0004008000A0000000000000006400640042
:10567C001E001000100000000000000000002800B8
:10568C0028000A00030201000000000000000000D6
:10569C00000414204000000004008000A000000062
:1056AC0000000000640064001E00100010000000E8
:1056BC00000000000000280028000A00030201007E
:1056CC000000000000000000000414204000000056
:1056DC0004008000A00000000000000064006400D2
:1056EC001E00100010000000000000000000280048
:1056FC0028000A0003020100000000000000000066
:10570C00000428204000000004008000A0000000DD
:10571C0000000000640064001E0010001000000077
:10572C00000000000000280028000A00030201000D
:10573C0000000000000000000004282040000000D1
:10574C0004008000A0000000000000006400640061
:10575C001E001000100000000000000000002800D7
:10576C0028000A00030201000000000000000000F5
:10577C00000428204000000004008000A00000006D
:10578C0000000000640064001E0010001000000007
:10579C00000000000000280028000A00030201009D
:1057AC000000000000000000000428204000000061
:1057BC0004008000A00000000000000064006400F1
:1057CC001E00100010000000000000000000280067
:1057DC0028000A0003000100000000000000000087
:1057EC00800020204000000010008000000000001D
:1057FC0000000000001E0000000000000000001E61
:10580C000000000000000000001E0000000000006E
:10581C000000001E0000000000000000001E000040
:10582C00000000000000001E00000000000000004E
:10583C00001E0000000000000000001E0000000020
:10584C0000000000003C0000000000000000003CD4
:10585C000000000000000000003C00000000000000
:10586C000000003C000000000000000000200000D0
:10587C0000366E010000E02EC05D00001800000034
:10588C00800000000002000100500000014E465450
:10589C000D000000000000000002000000000000ED
:1058AC0000000000000000000000000000000000EC
:0C58BC00000000003501000009010000A0
:040000030000042DC8
:00000001FF
